:020000040800F2
:1000000000500020A90800087D0800087F080008AB
:100010008108000883080008850800080000000027
:100020000000000000000000000000008708000839
:1000300089080008000000008B0800088D080008EF
:10004000F1080008F1080008F1080008F1080008AC
:10005000F1080008F1080008F1080008F10800089C
:10006000F1080008F1080008F1080008F10800088C
:10007000F108000895080008F1080008F1080008D8
:10008000F1080008F1080008F1080008F10800086C
:10009000F1080008F1080008F1080008F10800085C
:1000A000F1080008F1080008F1080008F10800084C
:1000B000F1080008F1080008F1080008F10800083C
:1000C000F1080008F1080008F1080008F10800082C
:1000D000F1080008F1080008F1080008F10800081C
:1000E000F1080008F1080008F1080008000000000D
:1000F0000000000000000000000000000000000000
:0C01000000000000000000005FF808F1A3
:10010C0010B5054C237833B9044B13B10448AFF345
:10011C0000800123237010BD3C040020000000006F
:10012C005C1F000808B5034B1BB103490348AFF330
:10013C00008008BD00000000400400205C1F000887
:10014C0080F0004002E000BF81F0004142001FBF80
:10015C005FEA410392EA030F7FEA226C7FEA236C89
:10016C006AD04FEA1262D2EB1363C1BFD21841407E
:10017C0048404140B8BF5B42192B88BF704710F014
:10018C00004F40F4000020F07F4018BF404211F0B7
:10019C00004F41F4000121F07F4118BF494292EA1F
:1001AC00030F3FD0A2F1010241FA03FC10EB0C004B
:1001BC00C3F1200301FA03F100F0004302D54942D8
:1001CC0060EB4000B0F5000F13D3B0F1807F06D385
:1001DC0040084FEA310102F10102FE2A51D2B1F17D
:1001EC00004F40EBC25008BF20F0010040EA030072
:1001FC007047490040EB0000013A28BFB0F5000FF2
:10020C00EDD2B0FA80FCACF1080CB2EB0C0200FAA7
:10021C000CF0AABF00EBC25052421843BCBFD040F6
:10022C001843704792F0000F81F4000106BF80F470
:10023C0000000132013BB5E74FEA41037FEA226C33
:10024C0018BF7FEA236C21D092EA030F04D092F0FE
:10025C00000F08BF0846704790EA010F1CBF002032
:10026C00704712F07F4F04D1400028BF40F000408F
:10027C00704712F100723CBF00F50000704700F0AF
:10028C00004343F0FE4040F4000070477FEA2262D6
:10029C0016BF08467FEA23630146420206BF5FEAA7
:1002AC00412390EA010F40F4800070474FF00003A7
:1002BC0004E000BF10F0004348BF40425FEA000C6E
:1002CC0008BF704743F0964301464FF000001CE016
:1002DC0050EA010208BF70474FF000030AE000BF6C
:1002EC0050EA010208BF704711F0004302D54042AA
:1002FC0061EB41015FEA010C02BF8446014600201C
:10030C0043F0B64308BFA3F18053A3F50003BCFA36
:10031C008CF2083AA3EBC25310DB01FA02FC6344E3
:10032C0000FA02FCC2F12002BCF1004F20FA02F2EA
:10033C0043EB020008BF20F00100704702F12002DD
:10034C0001FA02FCC2F1200250EA4C0021FA02F23E
:10035C0043EB020008BF20EADC7070474FF0FF0C43
:10036C001CEAD0521EBF1CEAD15392EA0C0F93EA3E
:10037C000C0F6FD01A4480EA010C400218BF5FEAE0
:10038C0041211ED04FF0006343EA501043EA511153
:10039C00A0FB01310CF00040B1F5000F3EBF49004D
:1003AC0041EAD3715B0040EA010062F17F02FD2A51
:1003BC001DD8B3F1004F40EBC25008BF20F0010034
:1003CC00704790F0000F0CF0004C08BF49024CEA4B
:1003DC00502040EA51207F3AC2BFD2F1FF0340EADD
:1003EC00C250704740F400004FF00003013A5DDC4E
:1003FC0012F1190FDCBF00F000407047C2F100028F
:10040C00410021FA02F1C2F1200200FA02FC5FEA7B
:10041C00310040F1000053EA4C0308BF20EADC70C5
:10042C00704792F0000F00F0004C02BF400010F437
:10043C00000F013AF9D040EA0C0093F0000F01F0E4
:10044C00004C02BF490011F4000F013BF9D041EA06
:10045C000C018FE70CEAD15392EA0C0F18BF93EA08
:10046C000C0F0AD030F0004C18BF31F0004CD8D132
:10047C0080EA010000F00040704790F0000F17BFB9
:10048C0090F0004F084691F0000F91F0004F14D0FF
:10049C0092EA0C0F01D142020FD193EA0C0F03D157
:1004AC004B0218BF084608D180EA010000F000405A
:1004BC0040F0FE4040F40000704740F0FE4040F435
:1004CC00400070474FF0FF0C1CEAD0521EBF1CEAD4
:1004DC00D15392EA0C0F93EA0C0F69D0A2EB0302F2
:1004EC0080EA010C49024FEA402037D04FF080538C
:1004FC0043EA111143EA10130CF000408B4238BF51
:10050C005B0042F17D024FF4000C8B4224BF5B1A5E
:10051C0040EA0C00B3EB510F24BFA3EB510340EAAC
:10052C005C00B3EB910F24BFA3EB910340EA9C005A
:10053C00B3EBD10F24BFA3EBD10340EADC001B01CA
:10054C0018BF5FEA1C1CE0D1FD2A3FF650AF8B426E
:10055C0040EBC25008BF20F0010070470CF0004C7B
:10056C004CEA50207F32C2BFD2F1FF0340EAC250A6
:10057C00704740F400004FF00003013A37E792F067
:10058C00000F00F0004C02BF400010F4000F013AC5
:10059C00F9D040EA0C0093F0000F01F0004C02BFC0
:1005AC00490011F4000F013BF9D041EA0C0195E729
:1005BC000CEAD15392EA0C0F08D142027FF47DAFC2
:1005CC0093EA0C0F7FF470AF084676E793EA0C0FB2
:1005DC0004D14B023FF44CAF08466EE730F0004CB0
:1005EC0018BF31F0004CCAD130F000427FF45CAF40
:1005FC0031F000437FF43CAF5FE700BF42000ED206
:10060C00B2F1FE4F0BD34FF09E03B3EB126209D441
:10061C004FEA002343F0004323FA02F070474FF0F7
:10062C000000704712F1610F01D1420202D14FF06C
:10063C00FF3070474FF00000704700BF00B583B02B
:10064C000A4B5A6942F001025A615B6903F00103DB
:10065C000193019B002211460D2000F0B5F90D20ED
:10066C0000F0EAF903B05DF804FB00BF0010024093
:10067C0082B00A4B9A6942F020029A619A6902F0A0
:10068C0020020092009A9A6942F004029A619B69D6
:10069C0003F004030193019B02B070470010024069
:1006AC0072B6FEE700B591B02822002106A801F031
:1006BC008DFB002301930293039304930593012272
:1006CC0006924FF4803307930A9202220D920E93F6
:1006DC004FF480130F9306A800F022FC88B90F2367
:1006EC00019302230293002303934FF4806204923C
:1006FC000593012101A800F045FE20B911B05DF869
:10070C0004FBFFF7CDFFFFF7CBFF000000B583B074
:10071C0000F010F9FFF7C6FFFFF7AAFFFFF78EFFF7
:10072C0000F014F8702001F0D1F8074B1B68ADF8FD
:10073C0004301B0C8DF806304FF07E5214217020C3
:10074C0001F0D6F8F1E700BF741F000808B50F4898
:10075C000F4B03604FF48273436000238360C360CC
:10076C0002220261012242614FF400728261102266
:10077C00C2610362436283620A23C36200F034FFE6
:10078C0000B908BDFFF78CFFFBE700BF9C040020FD
:10079C000030014010B586B00023029303930493FC
:1007AC00059302681D4B9A4201D006B010BD044659
:1007BC0003F560439A6942F480529A619A6902F493
:1007CC0080520092009A9A6942F004029A619B69E5
:1007DC0003F004030193019BA023029302230393D0
:1007EC000323059302A90E4800F072FA0D480E4B34
:1007FC00036010234360002383608022C260036186
:10080C0043618361C36100F04FF918B9054BA364D0
:10081C005C62CAE7FFF744FFF8E700BF0030014015
:10082C0000080140580400203000024082B00E4BFA
:10083C009A6942F001029A619A6902F001020092EF
:10084C00009ADA6942F08052DA61DB6903F0805376
:10085C000193019B054A536823F0E06343F0007356
:10086C00536002B0704700BF00100240000001400E
:10087C00FEE7FEE7FEE7FEE7FEE7704770477047CE
:10088C0008B500F069F808BD08B5024800F07EF91B
:10089C0008BD00BF5804002070470000FFF7FCFFA4
:1008AC000B480C490C4A002302E0D458C4500433C2
:1008BC00C4188C42F9D3094A094C002301E0136097
:1008CC000432A242FBD301F05DFAFFF71FFF704721
:1008DC00000000203C040020AC1F00083C04002059
:1008EC008C0F0020FEE7000010B504460E4B187864
:1008FC004FF47A73B3FBF0F30C4A1068B0FBF3F0CF
:10090C0000F0A8F868B90F2C01D901200AE00022E8
:10091C0021464FF0FF3000F057F8054B1C600020CB
:10092C0000E0012010BD00BF0400002000000020EA
:10093C000800002008B5074A136843F01003136041
:10094C00032000F02FF80F20FFF7CEFFFFF76EFF0C
:10095C00002008BD00200240034A1168034B1B789D
:10096C000B441360704700BFF40400200400002007
:10097C00014B1868704700BFF404002038B50446DA
:10098C00FFF7F6FF0546B4F1FF3F02D0044B1B788E
:10099C001C44FFF7EDFF401BA042FAD338BD00BF4B
:1009AC0004000020074AD36823F4E0631B041B0CEB
:1009BC00000200F4E060034343F0BF6343F40033F0
:1009CC00D360704700ED00E000B5194BDB68C3F352
:1009DC000223C3F1070CBCF1040F28BF4FF0040C29
:1009EC0003F1040EBEF1060F18D9033B4FF0FF3E86
:1009FC000EFA0CFC21EA0C0199400EFA03F322EAE0
:100A0C000303194300280BDB0901C9B200F1604054
:100A1C0000F5614080F800135DF804FB0023E5E766
:100A2C0000F00F000901C9B2024B1954F4E700BFE2
:100A3C0000ED00E014ED00E0002807DB00F01F02E1
:100A4C00400901239340024A42F82030704700BF0E
:100A5C0000E100E00138B0F1807F0BD24FF0E023D1
:100A6C005861054AF02182F8231000209861072272
:100A7C001A6170470120704700ED00E030B401248A
:100A8C00056CAC40C56B6C60046863604368102BEC
:100A9C0005D0036899600368DA6030BC704703685E
:100AAC009A600368D960F8E760B310B40246016835
:100ABC00154B0B441548A0FB03031B099B00136447
:100ACC00134BD363022382F82130086820F47F5043
:100ADC0020F03000536894682343D468234314698E
:100AEC0023435469234394692343D4692343034325
:100AFC000B6000209063012382F8213082F82000E3
:100B0C0010BC704701207047F8FFFDBFCDCCCCCC9A
:100B1C000000024038B5044690F82000012832D07D
:100B2C00012084F8200094F82100C0B2012804D0E0
:100B3C00002384F82030022038BD022084F82100E4
:100B4C000020A0632568286820F00100286020465A
:100B5C00FFF794FFE36A5BB12268136843F00E035E
:100B6C0013602268136843F0010313600020E3E76D
:100B7C002268136823F0040313602268136843F09F
:100B8C000A031360EDE70220D6E7000038B5C36B0B
:100B9C001A6804682568016C04238B40134235D015
:100BAC0015F0040F32D0236813F0200F03D1236803
:100BBC0023F0040323600368434A934214D0143295
:100BCC00934218D01432934217D01432934217D058
:100BDC001432934217D01432934202D04FF08062F9
:100BEC0003E04FF4800200E00422384B5A60C36AE1
:100BFC0003B1984738BD4022F7E74FF48062F4E721
:100C0C004FF48042F1E74FF48022EEE702238B4051
:100C1C0013423CD015F0020F39D0236813F0200F8B
:100C2C0006D1236823F00A032360012380F82130C6
:100C3C000368254A934214D0143293421CD01432C8
:100C4C0093421BD0143293421BD0143293421BD0CC
:100C5C001432934202D04FF0007203E04FF40012B2
:100C6C0000E00222194B5A60002380F82030836A7E
:100C7C00002BBFD09847BDE72022F3E74FF400725A
:100C8C00F0E74FF40052EDE74FF40032EAE70823A7
:100C9C0003FA01F11142ADD015F0080FAAD0236868
:100CAC0023F00E032360026CC16B012303FA02F2E2
:100CBC004A60836380F82130002380F82030036B76
:100CCC00002B97D0984795E708000240000002409F
:100CDC0070B582B00024A446A6E0804DAA4210D084
:100CEC0007D97F4DAA420CD005F58035AA4208D011
:100CFC0013E0A5F58015AA4203D005F57025AA428C
:100D0C0007D18A68002A58D0012A51D0436108249F
:100D1C0003E0A5F58015AA42F3D0BEF1FF0F4ED823
:100D2C000646BEF1FF0F4CD84FEA8C0233680F25F4
:100D3C00954023EA050304FA02F2134333604B682F
:100D4C0013F0805F6ED0674B9A6942F001029A6192
:100D5C009B6903F001030193019B4FEA9C02951CD4
:100D6C00614B53F825600CF003039D000F23AB403F
:100D7C0026EA03065D4B984229D003F5806398421E
:100D8C0000F08E8003F58063984200F08B8003F5B1
:100D9C008063984219D004231AE0CC68BDE7CC6874
:100DAC000434BAE7CC680834B7E7CC680C34B4E741
:100DBC0003610824B1E70024AFE70424ADE7061D66
:100DCC00AFE7ACF108029200B0E7032300E0002388
:100DDC00AB4033430232444D45F822304B6813F498
:100DEC00801F61D0424A936843EA0E0393604B68BC
:100DFC0013F4001F5ED03E4AD36843EA0E03D3605F
:100E0C004B6813F4003F5BD0394A536843EA0E0336
:100E1C0053604B6813F4803F58D0354A136843EA4B
:100E2C000E0313600CF1010C0A6832FA0CF353D068
:100E3C00012303FA0CF302EA030E33EA0202F1D1A6
:100E4C004A68122A3FF649AF122A3FF666AF01A54F
:100E5C0055F822F00F0D0008A70D0008B10D000881
:100E6C00C30D0008270D0008270D0008270D0008EA
:100E7C00270D0008270D0008270D0008270D000876
:100E8C00270D0008270D0008270D0008270D000866
:100E9C00270D0008270D0008AB0D0008B70D000842
:100EAC00012395E7022393E7114A936823EA0E0383
:100EBC0093609CE70E4AD36823EA0E03D3609FE746
:100ECC000B4A536823EA0E035360A2E7084A1368DF
:100EDC0023EA0E031360A5E702B070BD00002210D8
:100EEC0000003110001002400000014000080140D9
:100EFC000004014082B0084B1B68084AA2FB032384
:100F0C005B0A00FB03F3019300BF019B5A1E019285
:100F1C00002BF9D102B0704700000020D34D6210B5
:100F2C00002800F0F18170B582B00446036813F01C
:100F3C00010F2CD0994B5B6803F00C03042B1DD0D4
:100F4C00964B5B6803F00C03082B12D06368B3F567
:100F5C00803F41D0002B55D103F1804303F504337E
:100F6C001A6822F480321A601A6822F480221A60FD
:100F7C0037E08A4B5B6813F4803FE7D0874B1B68E4
:100F8C0013F4003F03D06368002B00F0BF8123688B
:100F9C0013F0020F75D0814B5B6813F00C0F5FD010
:100FAC007E4B5B6803F00C03082B54D02369002B99
:100FBC0000F08A807A4B01221A60FFF7D9FC0546B3
:100FCC00764B1B6813F0020F75D1FFF7D1FC401B59
:100FDC000228F5D903209EE1704A136843F480334C
:100FEC001360636843B3FFF7C3FC05466B4B1B6888
:100FFC0013F4003FCBD1FFF7BBFC401B6428F5D9A1
:10100C00032088E1B3F5A02F09D0644B1A6822F4B1
:10101C0080321A601A6822F480221A60E1E703F128
:10102C008043A3F53C331A6842F480221A601A6894
:10103C0042F480321A60D4E7FFF79AFC0546574B0E
:10104C001B6813F4003FA2D0FFF792FC401B6428EE
:10105C00F5D903205FE1514B5B6813F4803FA5D1B8
:10106C004E4B1B6813F0020F03D02369012B40F089
:10107C004F814A4A136823F0F803616943EAC103BC
:10108C001360236813F0080F33D0A369002B5CD0D6
:10109C00434B0122C3F88024FFF76AFC05463F4B03
:1010AC005B6A13F0020F21D1FFF762FC401B022890
:1010BC00F5D903202FE1394A136823F0F80361694D
:1010CC0043EAC1031360DCE7354B00221A60FFF7DB
:1010DC004FFC0546314B1B6813F0020FD1D0FFF7C4
:1010EC0047FC401B0228F5D9032014E10120FFF72F
:1010FC0001FF236813F0040F00F09680274BDB6987
:10110C0013F0805F34D1254BDA6942F08052DA61FA
:10111C00DB6903F080530193019B0125214B1B6874
:10112C0013F4807F26D0E368012B3DD0002B53D1E4
:10113C0003F1804303F504331A6A22F001021A62A8
:10114C001A6A22F004021A6233E0154B0022C3F82B
:10115C008024FFF70DFC0546104B5B6A13F0020F61
:10116C00C7D0FFF705FC401B0228F5D90320D2E0BD
:10117C000025D3E70B4A136843F480731360FFF721
:10118C00F7FB0646074B1B6813F4807FCBD1FFF7A8
:10119C00EFFB801B6428F5D90320BCE00010024053
:1011AC0000004242007000405F4A136A43F00103A2
:1011BC001362E36833B3FFF7DBFB06465A4B1B6A3B
:1011CC0013F0020F2FD1FFF7D3FB801B41F28833B2
:1011DC009842F3D903209EE0052B09D0524B1A6A92
:1011EC0022F001021A621A6A22F004021A62E0E783
:1011FC004D4B1A6A42F004021A621A6A42F001025A
:10120C001A62D6E7FFF7B4FB0646474B1B6A13F08E
:10121C00020F08D0FFF7ACFB801B41F288339842D9
:10122C00F3D9032077E0E5B9E369002B72D03E4A8D
:10123C00526802F00C02082A56D0022B17D03B4BF6
:10124C0000221A66FFF794FB0446374B1B6813F019
:10125C00007F47D0FFF78CFB001B0228F5D9032039
:10126C0059E0314AD36923F08053D361DCE72F4B2B
:10127C0000221A66FFF77CFB05462B4B1B6813F00C
:10128C00007F06D0FFF774FB401B0228F5D9032022
:10129C0041E0236AB3F5803F1AD023494B6823F40D
:1012AC007413226A606A024313434B601F4B012282
:1012BC001A66FFF75DFB04461B4B1B6813F0007F9F
:1012CC000ED1FFF755FB001B0228F5D9032022E0B5
:1012DC00154A536823F40033A1680B435360DCE7D1
:1012EC00002018E0002016E0012B16D00E4B5B6896
:1012FC0003F48031226A914211D103F47013626AB3
:10130C0093420ED1002006E001207047012002E03C
:10131C00012000E0002002B070BD0120FBE701209D
:10132C00F9E70120F7E700BF00100240000042423D
:10133C000F4B5B6803F00C02082A01D00D48704774
:10134C00C3F383420C49885C13F4803F0BD0084BE9
:10135C005B68C3F34043094AD35C064A02FB00F0C6
:10136C00B0FBF3F07047064B03FB00F0704700BF77
:10137C000010024000127A00881F0008981F000815
:10138C0000093D00002800F0A08070B50D46044611
:10139C00524B1B6803F007038B420BD24F4A136866
:1013AC0023F007030B431360136803F007038B420E
:1013BC0040F08D80236813F0020F17D013F0040F48
:1013CC0004D0474A536843F4E0635360236813F036
:1013DC00080F04D0424A536843F460535360404AA8
:1013EC00536823F0F003A1680B435360236813F098
:1013FC00010F31D06368012B20D0022B25D0384A45
:10140C00126812F0020F64D035494A6822F00302C8
:10141C0013434B60FFF7ACFA0646314B5B6803F0A5
:10142C000C036268B3EB820F16D0FFF7A1FA801B96
:10143C0041F288339842F0D9032045E0284A1268DB
:10144C0012F4003FE0D101203EE0254A126812F070
:10145C00007FD9D1012037E0204B1B6803F0070334
:10146C00AB420AD91D4A136823F007032B431360C0
:10147C00136803F00703AB422DD1236813F0040F5C
:10148C0006D0174A536823F4E063E1680B435360BA
:10149C00236813F0080F07D0114A536823F46053E4
:1014AC00216943EAC1035360FFF742FF0C4B5B68B1
:1014BC00C3F303130B4AD35CD8400B4B18600B4B94
:1014CC001868FFF711FA002070BD01207047012049
:1014DC00FAE70120F8E70120F6E700BF0020024000
:1014EC0000100240781F00080000002008000020B7
:1014FC002DE9F04782B00546884617461E46FFF791
:10150C0037FA0A9B1B1A03EB0609FFF731FA8246DE
:10151C002B4B1B68C3F3CB3309FB03F301932B68F1
:10152C009C6838EA04030CBF4FF0010C4FF0000C20
:10153C00BC4540D0B6F1FF3FF1D0FFF719FAA0EB54
:10154C000A0048450AD2B9F1000F07D0019A02B13E
:10155C004A46019B013B01939146E0E72A68536898
:10156C0023F0E00353606B68B3F5827F0BD0AB6A5A
:10157C00B3F5005F14D0012385F85130002385F8B2
:10158C005030032018E0AB68B3F5004F02D0B3F530
:10159C00806FECD12A68136823F040031360E6E7F0
:1015AC002A68136823F4005313602A68136843F401
:1015BC0000531360DFE7002002B0BDE8F08700BFE6
:1015CC000000002010B582B004460B4600920022A9
:1015DC008021FFF78DFF08B902B010BD636D43F099
:1015EC00200363650320F7E7002856D010B50446A6
:1015FC00436A33B94368B3F5827F05D00023C361D6
:10160C0002E00023036143610023A36294F851308C
:10161C00002B3CD0022384F851302268136823F04D
:10162C0040031360636803F48273A26802F40442FB
:10163C001343E26802F400621343226902F00202CF
:10164C001343626902F001021343A26902F40072AF
:10165C001343E26902F038021343226A02F080025B
:10166C001343A26A02F40052216813430B60638B8C
:10167C00226803F0040353602268D36923F40063E7
:10168C00D36100206065012384F8513010BD84F8CB
:10169C0050302046FFF77EF8BCE701207047000071
:1016AC0038B590F85030012B5ED00446012380F8F9
:1016BC00503090F85150EDB29D424FD100294ED090
:1016CC00002A4CD0032380F851300023436501637A
:1016DC008286C2868363436403648387C38783687B
:1016EC00B3F5004F2AD0A36C204ADA62A36C204ACF
:1016FC009A62A36C1F4A1A63A36C00225A63226875
:10170C00E38E9BB20C32216BA06CFFF703FA0146FF
:10171C00F8B923681A6812F0400F03D11A6842F026
:10172C0040021A602268536843F020035360226819
:10173C00536843F0020353600D4610E002681368CF
:10174C0023F0400313600268136843F48043136072
:10175C00C9E7636D43F01003636500E002250023C5
:10176C0084F85030284638BD0225FBE7891700085D
:10177C00B7170008951700087047704708B5406AFE
:10178C00FFF7FBFF08BD704708B5406A0268536855
:10179C0023F003035360436D43F0100343650123AF
:1017AC0080F85130FFF7EFFF08BD30B583B0054628
:1017BC00446AFFF7DDF82B681B6813F0200F23D168
:1017CC00024621684B6823F020034B6021684B686C
:1017DC0023F002034B6064212046FFF7F3FE18B19F
:1017EC00636D43F020036365A36833B901932368E9
:1017FC00DA6801929B680193019B0023E386012325
:10180C0084F85130636D23B92046FFF7B5FF03B060
:10181C0030BD2046FFF7B7FFF9E7000010B40023F6
:10182C0009E04FF0C00C00EB400203EBC2021F4C6E
:10183C0004F802C00133072B07DC4A789A4012F0F7
:10184C00800FEED04FF0F00CEDE700220AE04FF0E5
:10185C00C00C00EB4003DB0008331344134C04F8BA
:10186C0003C00132072A07DC0B78934013F0800F7A
:10187C00EDD04FF0F00CECE700220AE04FF0C00C7A
:10188C0000EB4003DB0010331344084C04F803C096
:10189C000132072A07DC8B78934013F0800FEDD0D0
:1018AC004FF0F00CECE710BC704700BFFC040020BC
:1018BC0008B500EB4000C20002490348FFF7F0FEF8
:1018CC0008BD00BFFC0400209C04002038B5054670
:1018DC00002407E00549E0B2FFF7A0FF2846FFF718
:1018EC00E7FF0134A542F5DC38BD00BFF804002049
:1018FC002DE9F04182B0064688461546002438E2B0
:10190C00381901A9C0B2FFF789FFF0B2FFF7D0FF79
:10191C0001370B2F20DC29464FF08440FEF7D2FD17
:10192C00FEF76CFE8DF8040007EB4700FEF7C2FCD7
:10193C002946FEF7C7FDFEF761FE8DF80500002372
:10194C008DF80630E319372BDADDD8B2383801A917
:10195C00C0B2FFF763FFD8E70C2708E0381901A9DC
:10196C00C0B2FFF75BFFF0B2FFF7A2FF0137132FF6
:10197C0021DCC7F114008000FEF79CFC2946FEF721
:10198C00A1FDFEF73BFE8DF8040029464FF0844084
:10199C00FEF798FDFEF732FE8DF8050000238DF85A
:1019AC000630E319372BD9DDD8B2383801A9C0B2CB
:1019BC00FFF734FFD7E7142708E0381901A9C0B2A4
:1019CC00FFF72CFFF0B2FFF773FF01371B2F21DC61
:1019DC0000238DF8043029464FF08440FEF772FD49
:1019EC00FEF70CFE8DF80500A7F114008000FEF741
:1019FC0061FC2946FEF766FDFEF700FE8DF8060039
:101A0C00E319372BD9DDD8B2383801A9C0B2FFF7AA
:101A1C0005FFD7E71C2708E0381901A9C0B2FFF76A
:101A2C00FDFEF0B2FFF744FF0137232F21DC00232A
:101A3C008DF80430C7F124008000FEF73BFC2946EA
:101A4C00FEF740FDFEF7DAFD8DF8050029464FF054
:101A5C008440FEF737FDFEF7D1FD8DF80600E31943
:101A6C00372BD9DDD8B2383801A9C0B2FFF7D6FE72
:101A7C00D7E7242708E0381901A9C0B2FFF7CEFE3A
:101A8C00F0B2FFF715FF01372D2F21DCA7F1240051
:101A9C0000EB4000FEF70EFC2946FEF713FDFEF7A7
:101AAC00ADFD8DF8040000238DF805302946B448AF
:101ABC00FEF708FDFEF7A2FD8DF80600E319372BA3
:101ACC00D9DDD8B2383801A9C0B2FFF7A7FED7E7E5
:101ADC002E2708E0381901A9C0B2FFF79FFEF0B21B
:101AEC00FFF7E6FE0137372F22DC2946A448FEF724
:101AFC00E9FCFEF783FD8DF8040000238DF805301A
:101B0C00A7F12E00A0EB80001E30FEF7D3FB294678
:101B1C00FEF7D8FCFEF772FD8DF80600E319372BA3
:101B2C00D8DDD8B2383801A9C0B2FFF777FED6E7B6
:101B3C0000270AE03819C0B2383001A9C0B2FFF74B
:101B4C006DFEF0B2FFF7B4FE01370B2F1EDC2946F9
:101B5C004FF08440FEF7B6FCFEF750FD8DF8040004
:101B6C0007EB4700FEF7A6FB2946FEF7ABFCFEF79A
:101B7C0045FD8DF8050000238DF80630E319372B51
:101B8C00D8DD01A9D8B2FFF749FEDAE70C270AE045
:101B9C003819C0B2383001A9C0B2FFF73FFEF0B21D
:101BAC00FFF786FE0137132F1FDCC7F114008000EE
:101BBC00FEF780FB2946FEF785FCFEF71FFD8DF82E
:101BCC00040029464FF08440FEF77CFCFEF716FD1E
:101BDC008DF8050000238DF80630E319372BD7DD7F
:101BEC0001A9D8B2FFF71AFED9E714270AE0381971
:101BFC00C0B2383001A9C0B2FFF710FEF0B2FFF747
:101C0C0057FE01371B2F1FDC00238DF804302946AB
:101C1C004FF08440FEF756FCFEF7F0FC8DF8050003
:101C2C00A7F114008000FEF745FB2946FEF74AFC9D
:101C3C00FEF7E4FC8DF80600E319372BD7DD01A97C
:101C4C00D8B2FFF7EBFDD9E71C270AE03819C0B270
:101C5C00383001A9C0B2FFF7E1FDF0B2FFF728FE62
:101C6C000137232F1FDC00238DF80430C7F124002B
:101C7C008000FEF71FFB2946FEF724FCFEF7BEFC96
:101C8C008DF8050029464FF08440FEF71BFCFEF74B
:101C9C00B5FC8DF80600E319372BD7DD01A9D8B2B6
:101CAC00FFF7BCFDD9E724270AE03819C0B2383059
:101CBC0001A9C0B2FFF7B2FDF0B2FFF7F9FD013791
:101CCC002D2F1FDCA7F1240000EB4000FEF7F2FAE9
:101CDC002946FEF7F7FBFEF791FC8DF80400002374
:101CEC008DF8053029462648FEF7ECFBFEF786FCFE
:101CFC008DF80600E319372BD7DD01A9D8B2FFF711
:101D0C008DFDD9E72E270AE03819C0B2383001A969
:101D1C00C0B2FFF783FDF0B2FFF7CAFD0137372FD2
:101D2C0020DC29461648FEF7CDFBFEF767FC8DF844
:101D3C00040000238DF80530A7F12E00A0EB8000E5
:101D4C001E30FEF7B7FA2946FEF7BCFBFEF756FC31
:101D5C008DF80600E319372BD6DD01A9D8B2FFF7B1
:101D6C005DFDD8E7F0B2FFF7A3FD4046FEF706FE97
:101D7C000134372C01DC0027CBE502B0BDE8F08143
:101D8C000000F04170B50D4E0D4D761BB61006D00F
:101D9C00002455F8043B01349847A642F9D1094E6A
:101DAC00094D00F0D5F8761BB61006D0002455F876
:101DBC00043B01349847A642F9D170BDA01F00081E
:101DCC00A01F0008A81F0008A01F0008830730B53B
:101DDC0048D0541E002A3FD00346CAB201E0013C51
:101DEC003AD303F8012B9D07F9D1032C2DD9CDB291
:101DFC0045EA05250F2C45EA054536D9A4F1100214
:101E0C0022F00F0C03F1200EE6444FEA121C03F1F2
:101E1C00100242E9045542E9025510327245F8D1DC
:101E2C000CF1010214F00C0F03EB021204F00F0C76
:101E3C0013D0ACF1040323F003030433134442F82E
:101E4C00045B9342FBD10CF003042CB1CAB21C44CA
:101E5C0003F8012B9C42FBD130BD64461346002C89
:101E6C00F4D1F9E703461446BFE71A46A446E0E767
:101E7C00024B13B1024800F005B870470000000097
:101E8C009D1E0008002301461A46184600F01AB899
:101E9C0038B5084B084D5B1B9C1007D0043B1D4408
:101EAC00013C55F804399847002CF9D1BDE838406D
:101EBC0000F054B8AC1F0008A81F0008704700BF02
:101ECC00704700BF2DE9F047DFF87CA00646DAF832
:101EDC00000098460F469146FFF7F0FF1B4B1B681E
:101EEC00D3F8484124B365681F2D26DC5EB96B1C02
:101EFC000235DAF80000636044F82570FFF7E0FF64
:101F0C000020BDE8F087012304EB8501C1F888901F
:101F1C00D4F88821AB401A43022EC4F88821C1F8AA
:101F2C000881E4D1D4F88C211343C4F88C31DEE75A
:101F3C0003F5A674C3F84841D5E7DAF80000FFF7BB
:101F4C00BFFF4FF0FF30DCE7380400209C1F000877
:101F5C00F8B500BFF8BC08BC9E467047F8B500BF8A
:081F6C00F8BC08BC9E4670475A
:101F740000001E0000000000000000000102030435
:101F84000607080902030405060708090A0B0C0DD5
:0C1F94000E0F10100102000010000020D1
:081FA0007D1E0008310100085C
:041FA8000D0100081F
:101FAC000024F400010000001000000000000000FC
:101FBC0000000000FC02002064030020CC03002081
:101FCC000000000000000000000000000000000005
:101FDC0000000000000000000000000000000000F5
:101FEC0000000000000000000000000000000000E5
:101FFC0000000000000000000000000000000000D5
:10200C0000000000000000000000000000000000C4
:10201C0000000000000000000000000000000000B4
:10202C0000000000000000000000000000000000A4
:10203C000000000000000000000000000000000094
:10204C000000000000000000000000000000000084
:10205C000000000000000000010000000000000073
:10206C000E33CDAB34126DE6ECDE05000B00000038
:10207C000000000000000000000000000000000054
:10208C000000000000000000000000000000000044
:10209C000000000000000000000000000000000034
:1020AC000000000000000000000000000000000024
:0C23DC000000000000000000880F00203E
:04000005080008A93E
:00000001FF
